:100000000C9415030C945C030C945C030C945C033B
:100010000C945C030C945C030C945C030C945C03E4
:100020000C945C030C945C030C944C290C941E2AD5
:100030000C948F1E0C945C030C945C030C945C0376
:100040000C945C030C945C030C945C030C945C03B4
:100050000C945C030C94F71E0C945C030C945C03EE
:100060000C945C030C945C030C945C030C945C0394
:100070000C945C030C945C030C945C030C945C0384
:100080000C94FB0A0C945C030C945C030C945C03CE
:100090000C945C030C945C030C945C030C945C0364
:1000A0000C945C030C945C030C945C031C051E050F
:1000B0002905200522052405260528052B052D05E3
:1000C0002F053A05310533053505370539053C055A
:1000D000780F900FAB0FA310B811EF1028116E110D
:1000E0008C158C15C615C61505167C177C177C1744
:1000F00025167C17D516D516491751177C17761774
:10010000E216E216E216E216E216E216E216E2162F
:10011000E216E216E216E216E216E216E216E2161F
:10012000F4160217091710171A17071807181918C5
:100130001918101819181918191807180718151868
:100140001918191815188B2AAD2A9B2BAD2A9B2B31
:10015000F22A152B9B2B6A2B7D2B07634236B79B0C
:10016000D8A71A39685618AEBAAB558C1D3CB7CC17
:100170005763BD6DEDFD753EF6177231BF0000008F
:10018000803F08000000BE922449123EABAAAA2A72
:10019000BECDCCCC4C3E00000080BEABAAAAAA3E8D
:1001A00000000000BF000000803F000000000008C9
:1001B0004178D3BB4387D1133D190E3CC3BD428266
:1001C000AD2B3E68EC8276BED98FE1A93E4C80EF24
:1001D000FFBE01C4FF7F3F000000000029001E0099
:1001E0001F002000210022002300240025002600FB
:1001F00027004C002B0014001A00080015001700FF
:100200001C0018000C00120013002A00E00004007B
:100210001600070009000A000B000D000E000F0079
:1002200033002800E1001D001B0006001900050036
:1002300011001000360037003800E5003500E000FE
:10024000E300E600CF5C2C002C00D05CE600E3006D
:10025000E400340029001E001F00200021002200BD
:10026000230024002500260027004C002B0014004A
:100270001A00090013000A000D000F0018001C00EE
:1002800033002A00E00004001500160017000700E4
:100290000B00110008000C0012002800E1001D00F6
:1002A0001B000600190005000E0010003600370084
:1002B0003800E5003500E000E300E600CF5C2C00EC
:1002C0002C00D05CE600E300E400340029001E00AE
:1002D0001F0020002100220023002400250026000A
:1002E00027004C002B0034003600370013001C00A0
:1002F00009000A00060015000F002A00E0000400B3
:100300001200080018000C0007000B001700110075
:1003100016002800E100330014000D000E001B0041
:10032000050010001A0019001D00E5003500E0006E
:10033000E300E600CF5C2C002C00D05CE600E3007C
:10034000E4003800290001007B007C007D000100F2
:100350000100360237021D011C0149002B00230257
:10036000310224021E02010001002602270233028C
:1003700034024C00E000220225022E022E001D0154
:1003800001002F023002330034002800E1001F0278
:1003900038002D002D021C0101002F003000370015
:1003A0003100E5004600E000E300E60001002C001B
:1003B0002C000100E600E300E400390029003A00C7
:1003C0003B003C003D000100010001004B0001002A
:1003D000010049002B003E003F00400041000100A9
:1003E0000100500152004F0101004C00E0004200AA
:1003F00043004400450045024A00500051004F00B0
:100400004D002800E10001007B007C007D00010020
:1004100001001D014E001C010100E5005300E00039
:10042000E300E60001002C002C000100E600E300E0
:10043000E40048003A003B003C003D003E003F0025
:100440004000410042004300440045000100005CC0
:100450000100010001000100010001000100010094
:1004600001004C00010001000100165C175C135CE8
:100470000A5CCC5CCD5CCE5C0100010001001D5C1F
:100480001C5C195C1A5C1E5C1F5C01000100010011
:100490000100010001000100010001000100010054
:1004A0000100010001000100010001002A035400C5
:1004B0006800650020005000720065006F006E004B
:1004C0006900630020004B006500790062006F0046
:1004D00061007200640000002C034F007200740081
:1004E00068006F006C0069006E00650061007200BA
:1004F00020004B006500790062006F00610072000F
:100500006400730000000403090409029700040159
:1005100000A0FA09040000010301010009211101F2
:1005200000012240000705810308000A09040100B8
:100530000103000000092111010001223600070516
:10054000820308000A0904020000010100000924D6
:100550000100010900010309040300020103000076
:1005600007240100014100062402010100062402C3
:10057000020200092403010301020100092403020D
:1005800004010101000905040240000500000525E1
:100590000101010905830240000500000525010154
:1005A000031201100100000008EDFE61600100016E
:1005B00002000105010980A1018502160100260340
:1005C000001A81002A8300751095018100C0050C76
:1005D0000901A1018503160100269C021A01002AC7
:1005E0009C02751095018100C005010906A1010555
:1005F0000719E029E7150025019508750181029585
:1006000001750881010508190129059505750191F4
:10061000029501750391010507190029FF150026B0
:10062000FF00950675088100C00011241FBECFEFA2
:10063000DAE0DEBFCDBF04B603FE27C08091B5046B
:100640009091B604A091B704B091B8048730904B54
:10065000A740B04BD1F41092B5041092B60410929A
:10066000B7041092B80414BE84B7877F84BF0FB656
:10067000F894A89580916000886180936000109242
:1006800060000FBEE0E0F8E3099512E0A0E0B1E001
:10069000E6E1F2E602C005900D92A63AB107D9F75D
:1006A00024E0A6EAB2E001C01D92A53BB207E1F743
:1006B0000E9419260C9409310C9400006E9A769AC7
:1006C0000C94FF03CF93DF93EC010E94211EBE0127
:1006D00080E090E0DF91CF910C94BC1B0F931F93AF
:1006E000CF93FB018E3C2CE59207B9F140F48C3C92
:1006F0002CE5920771F08D3C9C45E1F062C0803D95
:100700002CE59207E9F1C8F1813D9C4509F44CC004
:1007100058C0C281CC2309F455C000E010E0980114
:1007200040E064E070E08CEC91E00E94890E81E092
:1007300090E010C0C281CC2309F444C000E010E076
:10074000980140E066E070E08CE591E00E94890E3F
:1007500082E090E00E9462032FC0C281CC2391F11D
:1007600000E010E0980140E068E070E08CE891E083
:100770000E94890E84E090E0EDCFC28183E002C048
:10078000C28184E0CC2341F00E941B1C45E064E060
:1007900083E00E942F0410C00E943C1C45E064E0EE
:1007A00083E00E942F040EC0C28185EECC2331F07D
:1007B0000E9428140E94B51FC0E004C00E94F014DB
:1007C00001C0C1E08C2FCF911F910F9108950F931D
:1007D0001F932FEF89EF90E0215080409040E1F788
:1007E00000C0000000E010E0980140E064E070E02C
:1007F0008CEE91E00E94890E1F910F9108950C9448
:10080000E7030F931F9300E010E0980140E063E0DE
:1008100070E084E491E00E94890E2FEF82E597E07A
:10082000215080409040E1F700C000001F910F91DF
:100830000C942E0A0F931F9300E010E0980140E003
:1008400068E070E084E091E00E94890E1F910F91B2
:1008500008950C941A0481E008950C946E03CF92CD
:10086000DF92EF92FF920F931F9301E010E020E0E0
:1008700030E06801790104C0CC0CDD1CEE1CFF1CCB
:100880008A95D2F704C0000F111F221F331F6A95EB
:10089000D2F70C291D292E293F29C0908603D0901C
:1008A0008703E0908803F0908903C022D122E222DE
:1008B000F322842FC016D106E206F30641F41F91FD
:1008C0000F91FF90EF90DF90CF900C941B1C1F9125
:1008D0000F91FF90EF90DF90CF900C943C1C0E9402
:1008E000E2110C948808279A2F988FEF9FEF90932E
:1008F0008700809386008AE08093800089E180935E
:1009000081000C94581F0E9473040C945E03282FDE
:1009100080918000211108C0877F80938000109211
:100920008D0010928C0008958860809380002330A1
:1009300019F48FEF9FEF0FC083E090E0821B9109C5
:10094000880F991F2FEF3FEFA90102C056954795D9
:100950008A95E2F7CA0190938D0080938C000895E8
:1009600008950C94B0040C94B1040E94F5170E94F1
:10097000DA110E9401042FEF84E39CE021508040B3
:100980009040E1F700C000000C941D1F0F931F93CF
:10099000CF93DF938C01FC01C081D181CE010E94F5
:1009A000B91CBE010E94E705EC01B8010E942D04AC
:1009B000882309F402C1B801CE010E949609882358
:1009C00009F4FBC0B801CE010E943212882309F459
:1009D000F4C0B801CE010E943808882309F4EDC0A4
:1009E000C531FCE5DF0708F07DC0C2308CE5D807D3
:1009F00008F452C0F8018281882309F459C00E948A
:100A00000E1E811102C00E94EA1D0E94261E90E067
:100A10009093A6048093A504FE01E350FC45E231C7
:100A2000F10530F4EA5AFF4F8091A5040C940E3082
:100A30008091A504816027C0826025C0846023C0A6
:100A4000806121C080621FC080641DC080681BC09F
:100A50008460886018C08E7F16C08D7F14C08B7F25
:100A600012C08F7E10C08F7D0EC08F7B0CC08F7721
:100A70000AC08B7F877F07C087FB222720F991E080
:100A8000922790FB87F98093A5048091A5040E948A
:100A90002A1E0E94F51791C0C115ECE5DE0779F01A
:100AA000C130DC45A1F081E08093AA028093AB02C3
:100AB000C801DF91CF911F910F910C942B04F80185
:100AC0008281882309F479C00E94B50476C0F801B8
:100AD0008281882309F471C080919B038160809397
:100AE0009B036BC0C73C8CE5D80739F5F8018281C0
:100AF000882361F01092AB020E94C11E9093A9025C
:100B00008093A80280E20E943F1557C08091AB02FB
:100B100081110FC08091A8029091A9020E94CD1E60
:100B2000883C910530F487E20E94281487E20E94F5
:100B3000F01480E20E94461540C0C83CECE5DE0798
:100B400038F5C63CDC4509F0AECFF8018281882338
:100B500051F01092AA020E94C11E9093A7028093A6
:100B6000A60282E0D0CF8091AA0281110FC08091AD
:100B7000A6029091A7020E94CD1E883C910530F4F8
:100B800086E20E94281486E20E94F01482E0D2CF0E
:100B9000CA3C8CE5D80731F4F8018281882369F0DA
:100BA00080E009C0CB3CDC4509F07DCFF8018281B3
:100BB000882319F082E00E94C42680E0DF91CF9163
:100BC0001F910F91089580E090E0089508959CE0B2
:100BD000799FF00111249CE3899FE00DF11D112400
:100BE000E60FF11DEE0FFF1FE452FE4F8591949129
:100BF0000895880F991FFC01E455FB4F859194914E
:100C000008950E94E7050E94BA07811521E5920721
:100C100008F042C0811540E5940708F017C1883EEE
:100C2000910508F5803E910508F0A3C1883A910529
:100C300078F4853A910508F094C08130910509F463
:100C400098C108F44FC18430910508F092C14AC19F
:100C50008D3B910508F490C0803C910508F442C199
:100C6000805C9109E3C0811560E3960778F48115F3
:100C700070E2970708F0D9C0803F910508F432C1AF
:100C80008F3F910509F008F4CEC00895811520E446
:100C9000920708F0D8C0CDC0811546E5940770F5DD
:100CA000811565E5960708F008C1811573E597077A
:100CB00050F4811522E5920708F0E4C0982F8827A8
:100CC000816F906A0895811544E5940708F0F0C09B
:100CD000482F4695469570E2479FA00111248370E6
:100CE000992721E030E0B90102C0660F771F8A958D
:100CF000E2F7CB01842B952B9A6808958A3B6CE52B
:100D0000960709F4E6C098F4811528E5920708F4DF
:100D1000E9C0811549E5940708F4D4C08A3A6CE526
:100D2000960708F4DFC08A5A9C45946D08958D3B60
:100D30007CE5970709F4D3C060F48B3B4CE594073E
:100D400009F4CAC08C3B9C4509F0CCC080E092ED10
:100D500008959C0130562115304208F0C3C09F71A0
:100D6000B6C0853A910509F4C0C0863A910509F0EC
:100D7000BFC082E890E40895883A910509F4BBC0A9
:100D8000893A910509F4BAC08A3A910509F4B9C0C3
:100D90008B3A910509F4B8C08C3A910509F4B7C0B3
:100DA0008B3B910509F4B6C08C3B910509F4B5C0A5
:100DB0008D3A910509F4B4C0803B910509F4B3C0A4
:100DC0008E3A910509F4B2C08F3A910509F4B1C089
:100DD000813B910509F4B0C0823B910509F4AFC095
:100DE000833B910509F4AEC0843B910509F4ADC085
:100DF000853B910509F4ACC0863B910509F4ABC075
:100E0000873B910509F4AAC0883B910509F4A9C064
:100E1000893B910509F4A8C08A3B910509F4A7C054
:100E200080E094E40895906508959F700E94F9050C
:100E300008959C01332793FF03C0C901986C08955E
:100E4000C901906C08959F70906A0895482F43706F
:100E500021E030E002C0220F331F4A95E2F73C68E0
:100E6000AC0164E0569547956A95E1F74370342BE1
:100E70008F708695869540E2849FC0011124822B55
:100E8000932B0895482F4695469560E2469FA00112
:100E900011248370992721E030E0B90102C0660F68
:100EA000771F8A95E2F7CB01842B952B9C680895D8
:100EB000982F8827846F906A08958F719927982FAB
:100EC000882705C0982F8827806F906A08959062C0
:100ED000089580E091ED089580E090ED089580E020
:100EE00093ED089580E090E0089581E890E40895FE
:100EF00083E890E4089582EE94E4089589EE94E402
:100F000008958AEE94E4089585EB94E4089586EBC1
:100F100094E4089583EB94E4089584EB94E40895B5
:100F200087EB94E408958CEC94E408958DEC94E4BC
:100F3000089583E895E408958AE895E4089582E9A0
:100F400095E4089584E995E4089581E296E408958E
:100F500083E296E4089584E296E4089585E296E4B7
:100F6000089586E296E4089587E296E408958AE279
:100F700096E408958238910549F1B0F481339105E2
:100F800009F458C048F48932910509F44EC08A32F8
:100F9000910509F454C008958533910509F440C0C2
:100FA0008933910599F00895833E910529F138F42C
:100FB000803E910591F0823E9105A1F00895863E14
:100FC0009105F9F0873E910531F108952091A5042E
:100FD00020FD3AC021FD38C008958091A50480FD10
:100FE00035C032C08091A50482FF32C08091A50433
:100FF00084FD30C083EE39C08091A50482FD28C0F5
:10100000F5CF8091A50483FF27C08091A50484FDBE
:1010100021C087EE2AC08091A50483FD1DC0F5CFB5
:101020008091A50485FD1AC01BC08091A50485FD93
:1010300017C014C08091A50486FD14C015C080910E
:10104000A50486FD11C00EC080EE0FC089E30DC05F
:1010500082EE0BC080E009C086EE07C089E205C0C1
:1010600085E303C08AE201C081E390E0089508951A
:101070000F931F93CF93FB012281211102C0C1E086
:1010800041C08C01C091B902C11125C085319C4578
:10109000B1F70E94370881E08093B9020E94C11E17
:1010A0009093B8028093B7021092AC021092AE02F5
:1010B0001092AD021092B0021092AF021092B202E2
:1010C0001092B1021092B4021092B3021092B602C2
:1010D0001092B50217C08091B7029091B8020E9499
:1010E000CD1E883C910558F69091AC02E92FF0E0B6
:1010F000EE0FFF1FE355FD4F118300839F5F909319
:10110000AC02C0E08C2FCF911F910F9108950895EC
:101110000C94870885B7806885BF85B7806885BFD0
:10112000A2E4B2E041E050E025E02A0F8D91E82FE3
:10113000E295EF70F0E031A18F70BA0102C0660F46
:10114000771F8A95E2F7CB01962F9095932391A371
:1011500092A1892B82A32A13E9CFA6E3B2E041E052
:1011600050E02CE02A0F8D91E82FE295EF70F0E02F
:1011700031A18F70BA0102C0660F771F8A95E2F71E
:10118000CB01962F9095932391A392A1892B82A3B3
:101190002A13E9CFE4ECF2E0AAEBB2E0119211924B
:1011A0001D921D9272E0EE3CF707C1F70C94830488
:1011B0002F923F925F926F927F928F929F92AF9207
:1011C000BF92CF92DF92EF92FF920F931F93CF9334
:1011D000DF9322E4C22E22E0D22E0AEB12E0E801D5
:1011E000EE24E394F12C662463945E018880998058
:1011F00019821882D6018D916D01E82FE295EF706A
:10120000F0E021A18F70A70102C0440F551F8A95FD
:10121000E2F7CA01242B21A322A1742E7094272166
:1012200022A350EA5A95F1F796E3292E92E0392E3F
:1012300020E030E0D1017D911D01472F42954F7094
:1012400050E0DA0190965C90488159817F70D70117
:1012500002C0AA0FBB1F7A95E2F7BD01652141F4D8
:10126000B701022E02C0660F771F0A94E2F702C090
:1012700060E070E0462B572B598348832F5F3F4F28
:101280002C303105B9F691A1792271A292A1892B56
:1012900082A32296F501808191818816990641F0FA
:1012A0006092CE020E94C11E9093D0028093CF0222
:1012B000F2E0C43CDF0709F098CF8091CE0288238A
:1012C000B1F08091CF029091D0020E94CD1E06977E
:1012D00070F0E4ECF2E0D8018D919D918D01819345
:1012E0009193B2E0043C1B07B1F71092CE020E942A
:1012F0006F0481E0DF91CF911F910F91FF90EF90EC
:10130000DF90CF90BF90AF909F908F907F906F9025
:101310005F903F902F900895E82FF0E0EE0FFF1FB1
:10132000EC53FD4F8081918108950895FB01863132
:101330002CE5920731F48281882379F10E94200FF5
:101340002AC087312CE5920731F48281882329F164
:101350000E94290F20C088312CE5920741F4828138
:101360008823D9F00E941C0F8111F2CFE7CF8C3176
:101370002CE5920731F48281882379F00E94300FA6
:1013800008C08D319C4549F48281882331F00E9448
:10139000390F0E941A0480E0089581E00895682FB3
:1013A00070E065547109072E000C880B990B0E94A0
:1013B000EB2C20E030E040E451E40E94412C9B0102
:1013C000AC0160E070E080E090E40E946F2E20E0CD
:1013D00030E04CED53E40E94022E4FE050E00C94BC
:1013E000290E682F70E065547109072E000C880BD8
:1013F000990B0E94EB2C20E030E040E451E40E9485
:10140000412C9B01AC0160E070E080E090E40E9420
:101410006F2E20E030E04CED53E40E94022E0C943D
:10142000610A0C942E0A08950E940E1E811102C0BA
:101430000E94EA1D0E94381E809399043E9A809172
:1014400071008D7F8093710082E0809390008AE12B
:101450008093910081E08093D30208958091D3021C
:10146000811102C00E94140A1092230310922203D9
:10147000809171008D7F80937100809190008F73B7
:10148000809390001092E5021092E40210921C03E7
:1014900010921D0310921E0310921F0310921B0343
:1014A00010921A03EAEFF2E0AAEEB2E01192119262
:1014B000119211921D921D9283E0EA31F807B1F763
:1014C0000895CF92DF92EF92FF920F931F93CF93E5
:1014D000DF932091E402222309F484C06B017C0194
:1014E0008091D302811102C00E94140A0AE113E024
:1014F000C7E0D0E0A7019601F80192918291729124
:1015000062918F010E943C2C811131C0FE01EE0FCF
:10151000FF1FEE0FFF1FE650FD4F10821182128257
:101520001382DE01AA0FBB1FA651BD4F11961C925C
:101530001E92C730D105E9F021964481558166811C
:10154000778140835183628373831482158216826C
:10155000178212968D919C91139711969C938E935E
:1015600013961C921E92129734961296E2CF2197F0
:1015700008F68091220390912303019797FD05C0FF
:10158000909323038093220304C0109223031092AC
:101590002203809122039091230320912003309114
:1015A00021032817390724F01092210310922003F9
:1015B000892BC1F4809171008D7F8093710080919F
:1015C00090008F738093900010921C0310921D0363
:1015D00010921E0310921F0310921B0310921A0305
:1015E0001092E402DF91CF911F910F91FF90EF9045
:1015F000DF90CF9008951F920F920FB60F92112493
:101600004F925F926F927F928F929F92AF92BF9212
:10161000CF92DF92EF92FF922F933F934F935F937E
:101620006F937F938F939F93AF93BF93CF93DF93EA
:10163000EF93FF938091E402882309F4ABC1C0913A
:101640002203D09123031C161D060CF0A3C1409069
:10165000D4025090D5026090D6027090D70220E05C
:1016600030E0A901C301B2010E94FD2D18160CF053
:1016700065C0C130D10509F452C08091200390911A
:101680002103BE010E94FA2F7C01909321038093D5
:1016900020038090E6029090E702A090E802B090CC
:1016A000E90220E030E040E85FE3C501B4010E94B8
:1016B000D02B6093E6027093E7028093E802909348
:1016C000E902F701EE0FFF1FEE0FFF1FE650FD4F7F
:1016D000A301920160817181828193810E94412CDA
:1016E00020E030E040E05EE30E94022E9B01AC016E
:1016F000C501B4010E94FD2D18168CF4C701019696
:10170000BE010E94FA2F9093210380932003109230
:10171000E6021092E7021092E8021092E902E091CC
:101720002003F0912103EE0FFF1FEE0FFF1FE65085
:10173000FD4F6081718182819381E0C080910C02B4
:101740002197882309F4BFC0C0901C03D0901D03CB
:10175000E0901E03F0901F0320E030E0A901C701D4
:10176000B6010E943C2C882309F4A2C0FE01EE0FB2
:10177000FF1FEE0FFF1FE650FD4F80809180A2807B
:10178000B380A5019401C701B6010E943C2C87FFDC
:1017900031C0A501940160E070E08CED93EC0E94F3
:1017A000412C20E030E040E451E40E94412C20E054
:1017B00030E040E05FE30E94022E9B01AC0160E05C
:1017C00070E080E090E40E946F2E9B01AC01C501A7
:1017D000B4010E94022E9B01AC01C701B6010E9418
:1017E0003C2C87FF07C0A701960160E070E08CEDFC
:1017F00093E439C0A5019401C701B6010E94FD2DF3
:1018000018160CF055C0A501940160E070E08CED55
:1018100093E40E94412C20E030E040E451E40E9437
:10182000412C20E030E040E05FE30E94022E9B016B
:10183000AC0160E070E080E090E40E946F2E9B01BC
:10184000AC01C501B4010E94022E9B01AC01C7018D
:10185000B6010E94FD2D18165CF5A701960160E007
:1018600070E08CED93EC0E94412C20E030E040E4ED
:1018700051E40E94412C20E030E040E05FE30E9410
:10188000022E9B01AC0160E070E080E090E40E94D9
:101890006F2E9B01AC01C701B6010E94022E60931E
:1018A0001C0370931D0380931E0390931F031EC09F
:1018B000CC0FDD1FCC0FDD1FC650DD4F8881998115
:1018C000AA81BB810BC0FE01EE0FFF1FEE0FFF1FB1
:1018D000E650FD4F80819181A281B38180931C03EA
:1018E00090931D03A0931E03B0931F0360911C03EC
:1018F00070911D0380911E0390911F032091D102CE
:101900003091D2022F3F4FEF340731F02F5F3F4F1E
:101910003093D2022093D1020E94420F6B017C01CE
:1019200020E034E244EF51E40E943C2C87FF08C0E1
:1019300086EFC82E88E2D82E84EFE82E81E4F82EB8
:1019400020E030E040E051E4C701B6010E94022EE1
:101950009B01AC0160E074E284E79BE40E94412CAF
:101960006B017C010E94BA2C7093970060939600E3
:1019700020910D0230910E0240910F025091100201
:10198000C701B6010E94022E0E94BA2C70939900E2
:10199000609398008091E502882309F433C1C090D8
:1019A000E002D090E102E090E202F090E30220E059
:1019B00030E0A901C701B6010E94FD2D1816D4F52B
:1019C0008091D1029091D2028F3F2FEF920729F0A0
:1019D00001969093D2028093D102C701B6010E9472
:1019E000420F20E030E040E051E40E94022E9B01D3
:1019F000AC0160E074E284E79BE40E94412C6B013F
:101A00007C010E94BA2C70939700609396002091FD
:101A10000D0230910E0240910F0250911002C70149
:101A2000B6010E94022E0E94BA2C70939900609316
:101A3000980008C01092970010929600109299009A
:101A4000109298006091DA027091DB026F5F7F4F15
:101A50007093DB026093DA02209196003091970038
:101A600080E090E0232BF1F0C0919600D091970098
:101A70000E94E92C6B017C01BE0180E090E00E9495
:101A8000E92C9B01AC016091DC027091DD02809138
:101A9000DE029091DF020E94412C20E03FEF4FE7F1
:101AA00057E410C00E94E92C6B017C0120E030EE6D
:101AB0004FEF54E46091DC027091DD028091DE0210
:101AC0009091DF020E94022E9B01AC01C701B6017A
:101AD0000E94FD2D87FD96C08091D8028F5F809374
:101AE000D80290E0209195043091960482179307D4
:101AF000A0F08091A004882319F01092D8020DC0A4
:101B0000809171008D7F80937100809190008F7320
:101B1000809390001092E5027DC08091D902C0911F
:101B2000D802811128C0C0909A04D0909B04E09004
:101B30009C04F0909D0420E030E0A901C701B601AB
:101B40000E94FD2D1816BCF481E08093D9021092FA
:101B5000E0021092E1021092E2021092E302C092BF
:101B6000DC02D092DD02E092DE02F092DF02C15090
:101B7000C093D80243C01092D9021092D2021092A0
:101B8000D102E0919704F091980448E0C49FE00DE1
:101B9000F11D112480819181A281B3818093E002A3
:101BA0009093E102A093E202B093E30220E030E0E0
:101BB00040E85EE364817581868197810E94022EF0
:101BC0006B017C0180911102682F70E080E090E051
:101BD0000E94E92C20E030E048EC52E40E94412CC5
:101BE0009B01AC01C701B6010E94022E6093DC028A
:101BF0007093DD028093DE029093DF021092DB028D
:101C00001092DA028091990480FD04C01092E502DE
:101C10001092E402FF91EF91DF91CF91BF91AF91CC
:101C20009F918F917F916F915F914F913F912F91F4
:101C3000FF90EF90DF90CF90BF90AF909F908F90EC
:101C40007F906F905F904F900F900FBE0F901F90FE
:101C50001895CF92DF92EF92FF92CF93DF936B01B3
:101C60007C01EA018091D302811102C00E94140A12
:101C70008091990480FF46C08091220390912303B4
:101C800008970CF03FC0809171008D7F80937100A8
:101C90008091E50281110E942E0A81E08093E40286
:101CA0001092D2021092D10220E030E0A901C701C7
:101CB000B6010E94FD2D1816DCF48091220390914C
:101CC0002303FC01EE0FFF1FEE0FFF1FE650FD4F39
:101CD000C082D182E282F382FC01EE0FFF1FE65147
:101CE000FD4FD183C08301969093230380932203F9
:101CF0008091710082608093710080919000806873
:101D000080939000DF91CF91FF90EF90DF90CF9084
:101D100008958F929F92AF92BF92CF92DF92EF92EF
:101D2000FF920F931F93CF93DF93EC017B01D42E8F
:101D3000480159018091D302811102C00E94140A06
:101D40008091990480FF6BC0809171008D7F80939A
:101D500071008091E40281110E942E0A81E080933B
:101D6000E502D0939804C0939704F0929604E09211
:101D70009504D092A00480929A0490929B04A09221
:101D80009C04B0929D041092E6021092E702109219
:101D9000E8021092E9021092D80288819981AA8102
:101DA000BB818093E0029093E102A093E202B093A2
:101DB000E30220E030E040E85EE36C817D818E81CB
:101DC0009F810E94022E6B017C0180911102682F7D
:101DD00070E080E090E00E94E92C20E030E048ECE8
:101DE00052E40E94412C9B01AC01C701B6010E9444
:101DF000022E6093DC027093DD028093DE029093EA
:101E0000DF021092DB021092DA0280917100826090
:101E10008093710080919000806880939000DF91A2
:101E2000CF911F910F91FF90EF90DF90CF90BF90D7
:101E3000AF909F908F90089580919904817008953C
:101E4000809199048160809399040E943C1E0C94B7
:101E5000130A809199048E7F809399040C943C1E00
:101E60008091240390E00196877099278093240342
:101E700008958091240390E00796877099278093B6
:101E8000240308958F929F92AF92BF92CF92DF92D8
:101E9000EF92FF92CF93DF936B017C01C091D1024F
:101EA000D091D202BE0180E090E00E94E92C4B016B
:101EB0005C01A701960160E070E08CE594E40E946B
:101EC000412C9B01AC01C501B4010E94022E0E946D
:101ED000BA2C9B01E09124038E2E912C48E08416AD
:101EE000910408F045C2F401E859FF4F0C940E30FC
:101EF00081E080930C0280E090E0A0E0BFE380935B
:101F00000D0290930E02A0930F02B0931002109254
:101F1000D4021092D5021092D6021092D70228C293
:101F200010920C021092D4021092D5021092D60296
:101F30001092D7026431710528F46A30710508F4F3
:101F400049C104C0693C710508F044C180E090E0DB
:101F5000A0E8BEE373C010920C021092D40210925B
:101F6000D5021092D6021092D70220E030E040EA6B
:101F700052E4C701B6010E943C2C87FDF9C120E064
:101F800030E040E253E4C701B6010E943C2C87FFD9
:101F90002FC00E94603068E270E00E94FA2FBC01FE
:101FA000645C7F4F072E000C880B990B0E94EB2C72
:101FB0006B017C018091D1029091D2028B3091050E
:101FC000C8F18531910508F080C165E170E0681BBA
:101FD000790B80E090E00E94E92C20E030E040E0C6
:101FE0005FE30E94022E20E030E040E251E4A8C00E
:101FF00020E030E040EA53E4C701B6010E943C2CE7
:1020000087FF2CC00E94603068EE73E00E94FA2FB8
:10201000BC0168517C4F072E000C880B990B0E9465
:10202000EB2C6B017C018091D1029091D202863021
:10203000910568F480E090E0A0E0BFE380930D029A
:1020400090930E02A0930F02B093100291C18531BC
:10205000910508F03AC165E170E062C020E030E02F
:1020600040E254E4C701B6010E943C2C87FF2FC018
:102070000E94603060ED77E00E94FA2FBC01685446
:10208000744F072E000C880B990B0E94EB2C6B01F0
:102090007C018091D1029091D2028031910550F261
:1020A0008531910508F011C165E170E0681B790B7D
:1020B00080E090E00E94E92C20E030E040E05FE327
:1020C0000E94022E20E030E040EA50E439C020E0D7
:1020D00030E040EA54E4C701B6010E943C2C87FF7F
:1020E00047C10E94603060ED77E00E94FA2FBC018A
:1020F0006854744F072E000C880B990B0E94EB2C30
:102100006B017C018091D1029091D20284329105C1
:1021100008F490CF8333910508F0D7C063E370E0F3
:10212000681B790B80E090E00E94E92C20E030E011
:1021300040E05FE30E94022E20E030E040E751E4FF
:102140000E94412C7CC041E040930C021092D402CA
:102150001092D5021092D6021092D7026431710506
:1021600040F46A30710560F520E030E040E85EE35D
:102170002BC0693C710508F0A8C080E090E00E9487
:10218000E92C20E030E040EA51E40E94CF2B20E02F
:1021900030E044E353E40E94412C9B01AC010E94D7
:1021A000022E20E030E040E05EE30E94022E9B0120
:1021B000AC0160E070E080E09EE30E94CF2B3FC066
:1021C00020E030E040E05FE3C701B6010E94022E4C
:1021D0006B017C0180E090E0A0E0BEE32FCF21E026
:1021E00020930C021092D4021092D5021092D602C3
:1021F0001092D7024AE0469F9001479F300D11246C
:10220000C90168EB7BE00E94E62FBC016C5D754064
:1022100077FF03C0719561957109072E000C880B3B
:10222000990B0E94EB2C2EE333EC4EE259E30E9413
:10223000022E20E030E040EC5EE30E94D02B609361
:102240000D0270930E0280930F029093100290C0C3
:1022500081E080930C021092D4021092D502109269
:10226000D6021092D702CE0183709927892BE1F014
:10227000BE016170772780E090E00E94E92C20E0A9
:1022800030E040E05EE30E94022E20E030E040E4D7
:102290005FE30E94D02B60930D0270930E02809337
:1022A0000F02909310020CC080E090E0A0E0BFE32A
:1022B00080930D0290930E02A0930F02B093100230
:1022C000C770DD27CD2B09F053C010920D0210927C
:1022D0000E0210920F02109210024AC041E0409389
:1022E0000C021092D4021092D5021092D6021092D3
:1022F000D702812C912CA12C9FE3B92E80920D0244
:1023000090920E02A0920F02B0921002273931056E
:1023100078F180E090E00E94E92C20E030E047E195
:1023200053E40E94CF2B20E030E04AE754E40E94BF
:10233000412C20E030E048E452E40E94022E20E0EC
:1023400030E040EA51E40E94312D0E94B32C660F28
:10235000771F660F771FFB01E95BFD4F20813181FD
:1023600042815381C701B6010E94022E6B017C019C
:10237000C701B601DF91CF91FF90EF90DF90CF9032
:10238000BF90AF909F908F90089520E8482F60E015
:1023900088EA93E00C94352020E0482F60E088EA3A
:1023A00093E00C94452020E04BE760E088EA93E05E
:1023B0000C9425200E94110A0C94D31110923C0316
:1023C0000C94DA11CF93DF9380913903882309F4B9
:1023D00041C08091250390912603009781F40E94CB
:1023E000C11E90932603809325032091270330E09C
:1023F0002115310571F48091280390E00BC00E94F3
:10240000CD1E20911202309113022817390738F39C
:1024100021C0C9010197FC01E75DFC4FD081F901A2
:10242000E75DFC4FC0818D2F0E94F1098D2F0E9426
:10243000CC118C2F0E94CF098C2F0E94C511809146
:10244000270390E001966091280370E00E94FA2F24
:1024500080932703DF91CF91089581E080933C031F
:102460000C9429040F931F93CF938C01FB01093126
:102470008CE5180731F482818823D1F00E942D1257
:1024800009C00A318CE5180739F48281882381F06C
:102490000E94DE1180E0A0C00B318CE5180741F4EA
:1024A0008281882329F080913C038111F1CFE6CF0E
:1024B00080913C03882309F48EC09281003E11056F
:1024C00079F4992309F454C00E94DA1181E08093D1
:1024D0003B0310923A031092390310922803DACF8B
:1024E000023E110589F4992309F442C00E94DA11D1
:1024F00080913B03882319F081E080933A03109286
:102500003B0310923903C6CF033E1105A1F4992372
:1025100079F180913A03882359F10E94DA111092DF
:102520003B0381E080933903109227031092260326
:1025300010922503AFCF0235110551F4892F99234D
:1025400009F44AC080911202909113020A970BC0BD
:102550000135110569F4892F9923F1F18091120257
:10256000909113020A96909313028093120292CFD5
:10257000C09116028081C80FC05E20911402C20F64
:10258000818125E030E0281B3109822F880F880FD8
:10259000280FC20F8C2F9923A1F00E94CF098C2FF6
:1025A0000E94C51180913B03882381F0809128030C
:1025B000E82FF0E0E75DFC4FC0838F5F8093280336
:1025C00005C00E94F1098C2F0E94CC1181E00F3FC1
:1025D000110510F45FCF81E0CF911F910F91089505
:1025E00090934203809341030895E0914103F09159
:1025F0004203309721F00190F081E02D099480E0B2
:102600000895E0914103F0914203309721F0028058
:10261000F381E02D0994089520913F033091400308
:102620008217930771F09093400380933F03E091EA
:102630004103F0914203309721F00680F781E02DAD
:102640000994089520913D0330913E03821793072A
:1026500071F090933E0380933D03E0914103F0912C
:102660004203309721F00084F185E02D099408950C
:1026700008950C9438130E94B81E0E948A080E9484
:102680003F1F0C94581F4F925F927F928F929F92A0
:10269000AF92BF92CF92DF92EF92FF920F931F9370
:1026A000CF93DF93CDB7DEB72A970FB6F894DEBF8E
:1026B0000FBECDBF0E94D80894E4C92E93E0D92E56
:1026C00000E010E0AA24A394B12C702E802F0E9469
:1026D0008C094C01F601419051906F014826592612
:1026E00041145104B1F40F5F1F4F0530110569F714
:1026F0008FEF89838A831B820E94C11E8160782F9D
:102700009D838C8349815A816B818D810E94FA134C
:102710003AC080919B0381FD0E94950920E030E042
:102720007501022E02C0EE0CFF1C0A94E2F7C701ED
:1027300084219521892B09F12E837F828E209F2071
:1027400091E0892809F490E098870E94C11E816079
:10275000782F9A8789874E815F8168858A850E9454
:10276000FA13000F111FF801EC5BFC4F808191817F
:10277000E826F926F182E08206C02F5F3F4F2C3019
:10278000310571F6B0CF109143030E94F51218176E
:10279000D9F00E94F512809343032A960FB6F8945D
:1027A000DEBF0FBECDBFDF91CF911F910F91FF9084
:1027B000EF90DF90CF90BF90AF909F908F907F90E1
:1027C0005F904F900C94B3042A960FB6F894DEBF36
:1027D0000FBECDBFDF91CF911F910F91FF90EF9072
:1027E000DF90CF90BF90AF909F908F907F905F9041
:1027F0004F900895CF93DF93CDB7DEB72B970FB6E9
:10280000F894DEBF0FBECDBF4F83588769877A87A4
:102810008B87DE01119686E0FD0111928A95E9F71A
:1028200085E0FE01379601900D928A95E1F7498186
:102830005A816B817C818D819E810E948D1A2B969D
:102840000FB6F894DEBF0FBECDBFDF91CF910895D4
:10285000882309F4C4C0823859F40E94F51281FD1E
:10286000BEC089E30E94381D0E94BB1D89E30CC0D5
:10287000833871F40E94F51280FDB1C083E50E9497
:10288000381D0E94BB1D83E50E94551D0C94BB1D85
:10289000843859F40E94F51282FDA1C087E40E9499
:1028A000381D0E94BB1D87E4EFCF9CEF980F913A33
:1028B00018F40E94381DEACF90E2980F983050F437
:1028C000877091E001C0990F8A95EAF7892F0E94DD
:1028D000741DDCCF9BE5980F933070F4853A29F096
:1028E000863A31F083E890E005C081E890E002C0CC
:1028F00082E890E00C940C1398E5980F953108F05D
:102900006EC0883A61F1893A69F18A3A71F18B3A7D
:1029100079F18C3A81F18B3B89F18C3B91F18D3AC5
:1029200099F1803BA1F18E3AA9F18F3AB1F1813B47
:10293000B9F1823BC1F1833BC9F1843BD1F1853BC5
:10294000D9F1863BE1F1873BE9F1883BF1F1893B25
:10295000F9F18A3B09F43FC080E090E03EC082EE8E
:1029600090E03BC089EE90E038C08AEE90E035C040
:1029700085EB90E032C086EB90E02FC083EB90E0D7
:102980002CC084EB90E029C087EB90E026C08CEC53
:1029900090E023C08DEC90E020C083E891E01DC062
:1029A0008AE891E01AC082E991E017C084E991E0D9
:1029B00014C081E292E011C083E292E00EC084E292
:1029C00092E00BC085E292E008C086E292E005C08A
:1029D00087E292E002C08AE292E00C94221308950A
:1029E000882309F44BC0823859F40E94F51281FF04
:1029F00045C089E30E94381D0E94BB1D89E30CC0BD
:102A0000833871F40E94F51280FF38C083E50E947C
:102A1000381D0E94BB1D83E50E94551D0C94BB1DF3
:102A2000843859F40E94F51282FF28C087E40E947E
:102A3000381D0E94BB1D87E4EFCF9CEF980F913AA1
:102A400058F390E2980F983050F4877091E001C0ED
:102A5000990F8A95EAF7892F0E947A1DDFCF9BE5AF
:102A6000980F933020F480E090E00C940C13885A77
:102A7000853120F480E090E00C942213089588239F
:102A800021F00E94741D0C94BB1D0895882321F031
:102A90000E947A1D0C94BB1D08954F925F926F9215
:102AA0007F92AF92BF92CF92DF92EF92FF920F93FD
:102AB0001F93CF93DF931F92CDB7DEB77C01A72E74
:102AC000FC01058102950F701281112321F06983A9
:102AD0000E94911D698169830E94311D698188234B
:102AE00081F0112371F080E2860F883050F082E08F
:102AF0000E941A1D0E94311D91E0B82EB9266981ED
:102B000001C0B12CCA2CC2948FE0C822D12CF6018E
:102B1000E059FF4F0C940E308A2D807F0A2D0F70E4
:102B2000882311F00295007F1123C1F0002309F4DE
:102B30009BC180E2860F883010F0611105C0802FA4
:102B400069830E94741D04C0802F69830E94841DC4
:102B5000698169830E94BB1D698186C1862F698353
:102B60000E94F0146981002309F4C6C180E2860F37
:102B7000883010F0611104C0802F0E947A1D03C0BC
:102B8000802F0E948A1D0E94BB1DB6C18A2D807FA6
:102B90009A2D9F70803211F4892F03C0892F82955E
:102BA000807F662319F06130B1F01FC0112349F016
:102BB000002309F410C1013009F00DC10E94A41DC9
:102BC0009BC1002319F0013009F496C189830E944A
:102BD000A71D898106C1112321F0063008F08CC1A0
:102BE000FAC0053008F088C1FCC0112351F0002361
:102BF00009F4F1C0F701958190FF36C19F7095836C
:102C0000EAC0002309F4EDC040C18A2D869586955F
:102C1000837090E0009719F0019761F06DC1112366
:102C200021F0862F9A2D937002C080E090E00E94E0
:102C30000C1372C1112321F0862F9A2D937002C0BC
:102C400080E090E00E94221367C18A2D837009F012
:102C500052C011115DC1862F829586958770880FAD
:102C6000880F962F9F70492E512C612C712C082EA5
:102C700004C0440C551C661C771C0A94D2F764FFF0
:102C800014C00FE010E020E030E0B901A80104C05A
:102C9000440F551F661F771F8A95D2F7CB01BA01E3
:102CA000609570958095909503C060E070E0CB01D1
:102CB0002A2D26952695237030E02230310569F0C3
:102CC0002330310589F06429752986299729213017
:102CD000310571F00E94D01B1BC16429752986291A
:102CE00097290E94E21B14C10E94D01BC301B201AC
:102CF0000E94BE1B0DC1112319F08A2D817001C0E5
:102D00008695882309F404C1862F8295869587705D
:102D1000880F880F962F9F70492E512C612C712C93
:102D2000082E04C0440C551C661C771C0A94D2F76C
:102D300064FF14C00FE010E020E030E0B901A8010A
:102D400004C0440F551F661F771F8A95D2F7CB0129
:102D5000BA01609570958095909503C060E070E031
:102D6000CB012A2D269526952370422F50E0423024
:102D7000510569F04330510589F064297529862988
:102D800097294130510571F00E94941CC1C06429FB
:102D90007529862997290E94A61CBAC00E94941CF6
:102DA000C301B2010E94821CB3C0862F90E0FC01D7
:102DB000E05EF109E531F10508F052C0E058FF4F3F
:102DC0000C940E30062F0F708A2D8F71112331F065
:102DD0000E941B1C802F0E943F158EC00E943C1C2D
:102DE000802F0E94461588C0112341F0053008F05D
:102DF00083C08A2D8F710E94611C7EC0063008F04E
:102E00007BC0F7CF112339F08A2D8F710E941B1CD4
:102E100073C01123C9F38A2D8F710E943C1C6CC0B2
:102E2000112329F08A2D8F710E94061C65C00E9413
:102E3000011C62C0112351F01A2D1F71812F0E94B5
:102E40001B1C63E0812F0E94111D56C081E00E946F
:102E50001A1D023008F450C082E00E941A1D4CC0B6
:102E6000112331F0002381F2862F0E94281444C0E0
:102E7000002389F2693349F45FEF77EE83E0515024
:102E800070408040E1F700C00000862F0E94F014DF
:102E900033C04A2D4F70C7010E94E3050E94311BC9
:102EA0003BC0111139C04A2D4F7050E042305105DE
:102EB000B9F04CF44115510581F041305105E1F470
:102EC0000E94861F29C04330510569F044305105E6
:102ED00099F4862F0E94D81F1FC00E94691F1CC032
:102EE0000E94A21F19C00E94B51F16C04A2D4F7024
:102EF000C7010E94E60510C098E0C916D10441F050
:102F00005CF0FAE0CF1AD10822E0C216D10420F416
:102F10000E94F5120E94B304BB2001F10E940D1D16
:102F200080FD1CC0F70112820E94071D0E941B1C1D
:102F3000C7010E94BE170E94071D0F90DF91CF911D
:102F40001F910F91FF90EF90DF90CF90BF90AF90C7
:102F50007F906F905F904F900C943C1C0F90DF918E
:102F6000CF911F910F91FF90EF90DF90CF90BF9086
:102F7000AF907F906F905F904F9008950F931F9345
:102F8000CF93DF93EC01888199812B813C81232BA6
:102F9000B9F09F3F11F48F3F99F0CE010E94C60413
:102FA000882371F0688179818A810E94031D8C01D8
:102FB0000E94B81C0E94BB1BB801CE010E944D1597
:102FC000DF91CF911F910F9108950E94911D0E9452
:102FD000A11D0E94661D0E94BB1D80E090E00E9422
:102FE0000C1380E090E00C9422130E94811D0C943D
:102FF000E5170E94F81CE92FE295EF70F0E0329798
:10300000EE30F105B0F4EB56FF4F0C940E30803FDC
:1030100091F018F4803E68F40EC0843F51F40BC068
:10302000803E48F0813F29F406C093FB882780F951
:10303000089580E0089581E00895CF93DF9300D054
:1030400000D01F92CDB7DEB70F900F900F900F906A
:103050000F90DF91CF910895CF93DF9300D000D0F0
:1030600000D0CDB7DEB726960FB6F894DEBF0FBE00
:10307000CDBFDF91CF9108951F93CF93DF93C09180
:103080004E0316E080914F03C81799F0D0E01C9FC3
:10309000F0011D9FF00D1124E05BFC4F4081518138
:1030A00062817381848195810E942C182196C7705A
:1030B000E9CFDF91CF911F91089540918003509106
:1030C00081036091820370918303809184039091C6
:1030D00085030C942C188091850382958F7009F0DC
:1030E00054C080918203882309F44FC080914E031D
:1030F000A0914F03609180037091810340918303FD
:1031000050918403B6E08A1709F43FC090E041155E
:103110005105C1F17F3F11F46F3FA1F1B89FF0015C
:10312000B99FF00D1124E05BFC4F218172132AC07E
:103130002081621327C02281211124C02381348180
:103140002417350710F421503109241B350B283C76
:103150003105C0F4209185032F70206120938503F1
:1031600026E0289FF001299FF00D1124EB5AFC4F17
:1031700080818F708061808380E893E00E94BE1719
:103180000C943C1801968770BECF0895CF92DF92C1
:10319000EF92FF920F931F93CF93DF93CDB7DEB7DC
:1031A00062970FB6F894DEBF0FBECDBF8C0185E0ED
:1031B000F801DE011D9601900D928A95E1F7D80184
:1031C0004C9111965C91119712966C9112971396EF
:1031D000CD90DC90149730918003709181038091A1
:1031E000830390918403009709F46BC17F3F19F426
:1031F0003F3F09F466C1E0908203EE2009F4C0C0AD
:1032000020918503C816D90628F0F601E81BF90BB2
:10321000CF0104C0809590958C0D9D1DFF24F394E3
:10322000883C910578F0F12C207F09F0C6C07C2DF8
:10323000D98AC88A89890E941D1880E893E00E9473
:10324000BE17B1C0822F807F09F046C0751314C02D
:10325000341312C0611110C02F70206120938503B8
:103260000E945D1880E893E00E94BE17809185035C
:10327000D80115968C932EC0CD2819F15F3F11F41B
:103280004F3FF9F0F62E61111CC080914E03209142
:103290004F0336E0821709F45AC090E0389FF001DE
:1032A000399FF00D1124E05BFC4F7181571306C06C
:1032B0007081471303C07281711103C0019687703A
:1032C000E9CFF62E662309F418C180918503816049
:1032D00080938503F12C11C1751308C0341306C007
:1032E000611104C080918503D801C3C04D875E87FA
:1032F0008D859E856A8B0E94F9176A898823E1F182
:103300006623D1F120918503822F82958F7090E002
:10331000029774F0809180039091810398878F8346
:103320001986DB86CA862C87CE0107960E94BE17B7
:1033300086E0F801A0E8B3E001900D928A95E1F7EC
:103340000E946B180E945D18FF24F394D6C04D872D
:103350005E878D859E850E94F81C292F22952F70EF
:1033600030E0223031050CF0BCC09F7009F0B6C0CF
:10337000805E883008F4C1C0C8010E94BE17E4CF47
:10338000C816D90608F453C0F601E81BF90BCF01A3
:10339000883C910508F450C0F12C7C2DD98AC88A4C
:1033A00089890E941D18E0E8F3E086E0DF011D92A4
:1033B0008A95E9F70E945D18A0C0751314C03413F4
:1033C00012C0611110C080918503F8018583C80186
:1033D0000E94BE1786E0E0E8F3E0DF011D928A95C7
:1033E000E9F7FE2C8AC04D875E878D859E856A8BA6
:1033F0000E94F9176A89882309F4BECF662309F46D
:10340000BBCF20918503822F82958F7090E0029729
:103410000CF48ECF80918003909181039A838983ED
:103420001B82DD82CC822E83CE0101967FCF8095D8
:1034300090958C0D9D1DACCFF62E662309F49CCF84
:1034400075132EC034132CC02091850320FD1FC09E
:10345000822F82958F70D9F0D80115962C931597ED
:103460008F3049F08F5F982F9295907F822F8F70C9
:10347000892B15968C93C8010E94BE1786E0F8012F
:10348000A0E8B3E001900D928A95E1F793CF86E032
:10349000F801A0E8B3E001900D928A95E1F72DC004
:1034A0004D875E878D859E850E94F917811140CFDB
:1034B00080918503816080938503C8010E94BE17B7
:1034C0001CC0662309F458CF4D875E878D859E8585
:1034D0000E94F917882309F44FCF2ACF811148CFD2
:1034E0000CC0243031050CF047CF9F7009F440CF59
:1034F000F8019581907F09F03BCF8F2D62960FB632
:10350000F894DEBF0FBECDBFDF91CF911F910F9119
:10351000FF90EF90DF90CF9008951F93CF93DF93AC
:10352000CDB7DEB72C970FB6F894DEBF0FBECDBF78
:103530004F83588769877A878B879C87CE01079648
:103540000E94C618882369F08F8198852A853B855B
:10355000232BF1F19F3F09F063C08F3F09F060C05A
:1035600037C086E0FE013796DE01119601900D927C
:103570008A95E1F76F817885EA85FB85309741F17F
:103580007F3F11F46F3F21F120914F0330E0C901DB
:1035900001968770992740914E0350E08417950754
:1035A00009F447C069837A83FD83EC8396E0929F98
:1035B000D001939FB00D1124A05BBC4FFE0131964A
:1035C00001900D929A95E1F780934F030E943C1869
:1035D00016E080914E0390914F038917C1F1189F17
:1035E000C0011124805B9C4F0E94C618882379F18A
:1035F000E0914E031E9FF0011124E05BFC4F4081DF
:10360000518162817381848195810E942C188091FF
:103610004E0390E001968770992780934E03D9CF8F
:103620004F81588569857A858B859C850E942C18E9
:10363000CFCF0E94F51710924F0310924E03E0E88F
:10364000F3E086E0DF011D928A95E9F7C1CF2C9661
:103650000FB6F894DEBF0FBECDBFDF91CF911F91A3
:103660000895EF92FF920F931F93CF93DF938C01F6
:10367000892B09F46CC0F12CEE24E394E801219627
:10368000F8018491843740F4843008F051C08130CF
:1036900081F0823019F15BC0853709F444C0A8F18C
:1036A0009CE7980F903708F052C08F770E94F01473
:1036B00041C00E5F1F4FFE01C49180E28C0F883025
:1036C00048F4C7708E2D01C0880FCA95EAF70E9492
:1036D000941D14C08C2F0E9428142DC00E5F1F4F04
:1036E000FE01C49180E28C0F883058F4C7708E2D93
:1036F00001C0880FCA95EAF70E949A1D0E94BB1D5F
:103700001AC08C2F0E94F01416C00E5F1F4FFE01CE
:10371000C491CC2381F08FE99FE00197F1F700C0BD
:103720000000C150F6CF0E5F1F4FFE01F49003C0A2
:103730000E9428148E018F2D882309F49FCFEFE972
:10374000FFE03197F1F700C000008150F5CFDF9125
:10375000CF911F910F91FF90EF90089508950E94CF
:10376000AE1B60938A0370938B0380938C039093BA
:103770008D030C94E51708950C94AF1B0F931F93C2
:1037800000918A0310918B0320918C0330918D035B
:10379000602B712B822B932B1F910F910C94AF1BDD
:1037A0000F931F9300918A0310918B0320918C0338
:1037B00030918D0360237123822393231F910F91F6
:1037C0000C94AF1B0F931F9300918A0310918B03EE
:1037D00020918C0330918D036027712782279327D6
:1037E0001F910F910C94AF1B08950E94F41B6093DE
:1037F00086037093870380938803909389030C94C6
:10380000E51760E070E0CB010C94F51B0F931F935C
:1038100041E050E060E070E08A019B0104C0000FCD
:10382000111F221F331F8A95D2F7C901B8011F91BA
:103830000F910C94F51B0F931F9341E050E060E053
:1038400070E004C0440F551F661F771F8A95D2F79A
:103850008091860390918703A0918803B09189039A
:103860008A019B01082B192B2A2B3B2BC901B8017C
:103870001F910F910C94F51B0F931F9341E050E0A3
:1038800060E070E004C0440F551F661F771F8A95E3
:10389000D2F74095509560957095809186039091F0
:1038A0008703A0918803B09189038A019B010823B3
:1038B00019232A233B23C901B8011F910F910C94AE
:1038C000F51B0F931F9341E050E060E070E004C0EF
:1038D000440F551F661F771F8A95D2F78091860384
:1038E00090918703A0918803B09189038A019B017D
:1038F000082719272A273B27C901B8011F910F91D3
:103900000C94F51B0F931F9300918603109187036E
:103910002091880330918903602B712B822B932B8C
:103920001F910F910C94F51B0F931F930091860329
:1039300010918703209188033091890360237123BC
:10394000822393231F910F910C94F51B0F931F93C8
:103950000091860310918703209188033091890399
:1039600060277127822793271F910F910C94F51BD5
:103970000895CF92DF92EF92FF920F931F93CF9310
:10398000DF938C01C0908A03D0908B03E0908C036E
:10399000F0908D038091860390918703A091880316
:1039A000B0918903C82AD92AEA2AFB2ACFE1D0E0BC
:1039B000D701C6010C2E04C0B695A795979587959B
:1039C0000A94D2F780FF06C0B8018C2F0E9401062E
:1039D000019721F4219760F780E001C08C2FDF91DF
:1039E000CF911F910F91FF90EF90DF90CF900895AE
:1039F000CF93DF93EC010E94B91CBE010E94010627
:103A0000DF91CF910895CB010E94F81C0895809119
:103A10008E03859585958595089580918E03877091
:103A2000089598E0899F90011124262B20938E03FE
:103A30000C941B1C20918E038095822380938E030F
:103A4000982F977069F430E0482F082E000C550B22
:103A50002417350729F08595859585950C943C1C90
:103A6000089590918E03977081E009F480E00895A5
:103A70002091170230911802F90132969FEF40E031
:103A80005191581789F09F3F19F4511101C0942F9B
:103A90004F5F4630A9F79F3F39F0F901E90FF11D5B
:103AA00097FDFA9582830895089520911702309129
:103AB0001802F9013296285F3F4F9081981301C098
:103AC00010823196E217F307C1F7089581E090E084
:103AD000E0911702F0911802E80FF91F1082019689
:103AE00088309105A9F7089590919A03892B8093C6
:103AF0009A030895809590919A03892380939A035D
:103B0000089510929A03089590919903892B8093B8
:103B1000990308958095909199038923809399033F
:103B2000089510929903089590919803892B80939A
:103B30009803089580959091980389238093980322
:103B4000089510929803089580938F03089510921A
:103B50008F0308958091170290911802FC0131960D
:103B60009C01285F3F4F80E0919191118F5FE21798
:103B7000F307D1F70895E0911702F09118028091B0
:103B80009A038083E0911702F0911802908180914E
:103B90009903892B8083E0911702F091180290819C
:103BA00080919803892B808380918F03882361F013
:103BB000E0911702F09118029081892B80830E9476
:103BC000AA1D811110928F03809117029091180203
:103BD0000C9401136DEE7EEF80E090E00E94903037
:103BE00060E082E090E00E947E3060E083E090E060
:103BF0000E947E3060E084E090E00E947E3060E0D1
:103C000085E090E00E947E3060E086E090E00E94D7
:103C10007E306FEF87E090E00C947E3080E090E0A3
:103C20000E94783021E08D3E9E4F09F020E0822FE7
:103C3000089582E090E00C94703083E090E00C9462
:103C40007030682F83E090E00C947E3084E090E048
:103C50000C947030682F84E090E00C947E3086E005
:103C600090E00C947030682F86E090E00C947E30E9
:103C700087E090E00C947030682F87E090E00C941F
:103C80007E308091AC04843051F110929C0320E48A
:103C900088E190E00FB6F894A895809360000FBE7D
:103CA0002093600080E00E94870480E00E94B304BB
:103CB00083B7817F846083BF83B7816083BF78943B
:103CC000889583B78E7F83BF0FB6F894A8958091AF
:103CD0006000886180936000109260000FBE0895BC
:103CE00008950895CF930E94701E0E94D8080E94E4
:103CF000711EC0E08C2F0E948C09892B29F4CF5FA4
:103D0000C530C1F780E001C081E0CF9108950E94E5
:103D1000F5170E94581F0E94F5120C94B3041F92CD
:103D20000F920FB60F9211248F939F93AF93BF936F
:103D300080919C03811113C08091A1049091A204F1
:103D4000A091A304B091A4044196A11DB11D80933C
:103D5000A1049093A204A093A304B093A404BF91E0
:103D6000AF919F918F910F900FBE0F901F9018955C
:103D700082E084BD93E095BD9AEF97BD80936E007D
:103D800008952FB7F8948091A1049091A204A09176
:103D9000A304B091A4042FBF0895CF92DF92EF92B5
:103DA000FF920F931F932FB7F8944091A104509165
:103DB000A2046091A3047091A4042FBF6A017B0147
:103DC000EE24FF248C0120E030E0C016D106E2068C
:103DD000F30610F4415051099A01281B390BC9010F
:103DE0001F910F91FF90EF90DF90CF9008957894FE
:103DF0001F920F920FB60F9211248F939F93AF9340
:103E0000BF938091A1049091A204A091A304B091CA
:103E1000A4040196A11DB11D8093A1049093A20456
:103E2000A093A304B093A404BF91AF919F918F91ED
:103E30000F900FBE0F901F9018950E94D128F894F4
:103E40002FEF87EA91E6215080409040E1F700C0D3
:103E5000000087E090EBDC018093B5049093B604FA
:103E6000A093B704B093B8049CE088E10FB6F8942F
:103E7000A895809360000FBE90936000FFCF0E94D2
:103E80000E1E811102C00E94EA1D0E94191E80931D
:103E90009B030E94261E90E09093A6048093A504A5
:103EA0000E941D1E682F70E080E090E00C94BC1B07
:103EB0000E940E1E811102C00E94EA1D0E942F1E48
:103EC0008093A70480FF02C0869501C080E00C9417
:103ED00087042091A704822F8695482F50E0433015
:103EE000510544F48F5F982F990F822F8170892B91
:103EF0008093A7048091A70481608093A7040E9407
:103F0000331E8091A70486950C9487048091A704A2
:103F1000982F969591F09158990F8170892B8093E5
:103F2000A7048E7F91E009F490E08091A70490FBB4
:103F300080F98093A7040E94331E8091A704869580
:103F40000C9487048091A704982F909590FB80F99A
:103F50008093A7040E94331E8091A70480FF02C0B3
:103F6000869501C080E00C9487049091A704892F66
:103F700086958F5F8F779170843028F4880F892B16
:103F80008093A70402C09093A7048091A7048E7F1A
:103F900091E009F490E08091A70490FB80F9809370
:103FA000A7040E94331E8091A70486950C94870471
:103FB0002091A704922F96958927982F990F822FE9
:103FC0008170892B8093A7048E7F91E009F490E0A3
:103FD0008091A70490FB80F98093A7040E94331E70
:103FE0008091A70486950C948704881F8827881FD2
:103FF000089591E0883F08F490E0892F0895982F64
:10400000907F903BF1F038F49039D9F0903AC9F0B4
:104010009038C9F416C0903D49F018F4903C31F046
:1040200012C0903E71F0903F19F00DC082E00895EB
:10403000815F8F3040F4E82FF0E0E956FD4F80813A
:10404000089583E0089580E008950F93022F0F777D
:10405000242F2F776F70462F406BDC01ED91FC9180
:1040600063E070E009950F9108950F93022F0F7789
:10407000242F2F776F70462F4069DC01ED91FC9162
:1040800063E070E009950F9108950F93022F0F7769
:10409000242F2F776F70462F4068DC01ED91FC9143
:1040A00063E070E009950F910895FC0173836283CA
:1040B0000895FC01738F628F0895FC01758F648FE2
:1040C0000895CF93DF93EC011DA21FA21EA2BC0195
:1040D000685D7F4F40EC88519F4F0E9482221B8277
:1040E0001A821D821C821F821E82198618861B86D8
:1040F0001A861D861C861F861E86198A188A1B8AA8
:104100001A8A1D8A1C8A1F8A1E8A198E188E1B8E77
:104110001A8E1D8E1C8E1F8E1E8E19A218A2DF9164
:10412000CF910895EF92FF920F931F93CF93DF9358
:10413000162F042FEA0188519F4F7C019C2F901B62
:10414000911728F46991C7010E948922F7CFDF9166
:10415000CF911F910F91FF90EF900895FC01718313
:1041600060830895FC0171A360A30895AF92BF928C
:10417000CF92DF92EF92FF920F931F93CF93DF9333
:1041800000D01F92CDB7DEB77C016B01142FB22E89
:10419000A02EDC0195968C9195978430F1F45A9677
:1041A000ED91FC915B97309709F4C0C0CB0101976A
:1041B00063E070E00E94E62FCB01880F991F860F05
:1041C000971F4983BA820B834C2D481B9E012F5F9A
:1041D0003F4FBC01C7010995B6C06230710509F4B3
:1041E00052C06330710529F06130710509F099C042
:1041F00080C0842F807F803AF9F058F48038B1F085
:10420000803909F093C0D7011496ED91FC91159770
:104210002AC0803EB9F0803FD9F0803B09F086C0CB
:10422000D7011296ED91FC9113971DC0D7011696F8
:10423000ED91FC91179717C0D7011896ED91FC915D
:10424000199711C0D7011A96ED91FC911B970BC0DD
:10425000423F09F06BC0D7011C96ED91FC911D9770
:10426000309731F463C0309709F460C0123F21F4F5
:104270002A2D4B2D62EF04C02A2D4B2D612F6F701C
:10428000C701099560C0842F807F803D59F0803F31
:1042900079F0803C09F04AC0D7011E96ED91FC915F
:1042A0001F9718C0D7015096ED91FC91519712C0FD
:1042B000433F31F4D7015296ED91FC91539707C0DB
:1042C000413FA1F5D7015496ED91FC915597309758
:1042D00039F42CC0309751F1812F8D7F813F19F433
:1042E0004B2D612F03C04B2D612F6F70C7010995B6
:1042F0002AC0842F0E94F91F882331F0D7015696D7
:10430000ED91FC91579707C0163F81F4D70158965D
:10431000ED91FC915997309749F0612FC7010995AC
:1043200012C06430710510F0C12CD12CD7015C96FD
:10433000ED91FC915D97309731F00A2D2B2D412F97
:10434000B601C7010995D7015E96ED91FC915F9783
:10435000309731F00A2D2B2D412FB601C701099559
:104360000F900F900F90DF91CF911F910F91FF90C1
:10437000EF90DF90CF90BF90AF900895FF920F9392
:104380001F93CF93DF93EC01162F862F0E94F91F06
:10439000882369F0FDA081E08DA300E020E0412F9B
:1043A00061E070E0CE010E94B620FDA270C0812FB6
:1043B0000E94F51F4DA1882309F440C0443029F024
:1043C0001AA381E090E09FA38EA3812F0E94FF1F7C
:1043D000813031F070F0823051F0833041F02AC0EA
:1043E0008DA300E020E0412F61E070E01EC08DA3AE
:1043F0004EC0103FB1F0173FE9F42EA13FA1C90113
:1044000063E070E00E94E62FFE01E80FF91F12A39F
:10441000B9016F5F7F4F7FA36EA30CA12BA14AA1AF
:1044200004C084E08DA31AA329C0CE010E94B62047
:104430001DA22DC01DA21FA21EA229C0442339F116
:104440002EA13FA1C90163E070E00E94E62FFE01AA
:10445000E80FF91F12A3B9016F5F7F4F7FA36EA30F
:104460008130910581F0029791F40CA12BA14AA112
:10447000CE010E94B6208DA1843049F081E090E009
:104480009FA38EA304C0423011F400E0EFCFDF9170
:10449000CF911F910F91FF900895CF92DF92EF92ED
:1044A000FF920F931F93CF93DF93EC01E8A1F9A143
:1044B000309709F009956E0188EEC80ED11CC6012F
:1044C0000E94BB22E12CF12C082F10E0E016F1062F
:1044D00080F460E0C6010E94D122682FCE010E94C4
:1044E000BE2161E0C6010E94E3228FEFE81AF80ABC
:1044F000EDCFDF91CF911F910F91FF90EF90DF9063
:10450000CF900895FC0142837483638311821082EB
:1045100008951F93CF93DF93EC01162F0E9405237C
:10452000E82F298130E0C90101964A81642F70E0AB
:104530000E94FA2F488150E08417950729F48E2FA6
:104540000E94082380E013C08B819C81DC01A20FB4
:10455000B31F1C93298130E0C90101966A8170E084
:104560000E94FA2F89838E2F0E94082381E0DF9119
:10457000CF911F9108950F931F93CF938C010E94A9
:104580000523F801C1812081C21718F4F801928136
:10459000C90FC21B0E9408238C2FCF911F910F912E
:1045A0000895FC01808170E09B01280F311DC90135
:1045B000628170E00E94FA2F0380F481E02DE80F01
:1045C000F91F808108950F931F93CF93DF931F925C
:1045D000CDB7DEB78C0169830E940523482FF8010F
:1045E00080816981262F30E0B901680F711DCB01F0
:1045F000628170E00E94FA2F8083842F0F90DF91F8
:10460000CF911F910F910C9408238FB7F8940895C0
:104610008FBF08952091AC042430D9F49B01FC0194
:1046200081818F708093E90040E050E064E070E0A9
:10463000C9010E94F12681110FC09091E800892FD5
:10464000807295FD08C09091E8009E779093E800F5
:10465000089582E0089580E008952091AC0424300C
:10466000A1F4FC0181818F708093E9002091F30017
:104670008091F20090E0922B892B49F08091E80024
:104680008E778093E8000C949F2882E0089580E064
:104690000895FC018091AC04843059F491819F709D
:1046A0009093E9008091E80080FF03C0CF010C9453
:1046B0002D2308952091AC04243011F080E008955A
:1046C000FC0186818F708093E9008091E80082FF71
:1046D000F5CF8091E80085FFF1CFCB0140E050E0BD
:1046E00064E070E00E943C278091E80085FD05C0F1
:1046F0008091E8008B778093E80081E008958091B5
:10470000A5030895089508950895CF93DF93EC01CC
:104710000E94612060EE73E2CE010E94AE2068E943
:1047200073E2CE010E94B2207894DF91CF91089578
:104730000F931F93CF93DF93CDB7DEB727970FB6B5
:10474000F894DEBF0FBECDBF8C01BE016F5F7F4FFF
:1047500089E192E00E945A238823B9F08A810E945D
:10476000FF1F682F8A818D838B818E838C818F833D
:1047700061111FC099819430C9F09730B9F096301B
:10478000B9F0953011F761E014C089E192E00E9420
:1047900049230E94B42B27960FB6F894DEBF0FBEB4
:1047A000CDBFDF91CF911F910F91089563E001C0BC
:1047B00062E0AE014B5F5F4FC8010E949220C5CFFF
:1047C000EF92FF920F93CF93DF9300D000D000D0F1
:1047D000CDB7DEB77B014A832B830C83842F2E83D6
:1047E0004D830E94FF1F2E814D8181111BC082E0ED
:1047F000E816F10471F083E0E816F10421F0EA9480
:10480000EF2821F50BC0073F11F487E005C084E0D5
:1048100003C0273FE1F786E0898307C0473FB9F728
:1048200085E0FACF42954F704983BE016F5F7F4F9D
:1048300089E192E00E940A2389E192E00E942D23FF
:1048400089E192E00E9449230E94B42B26960FB67C
:10485000F894DEBF0FBECDBFDF91CF910F91FF90D7
:10486000EF9008950F931F93CF93DF9300D01F9283
:10487000CDB7DEB78C010E94D426823011F084308F
:1048800021F583E089831B830A8382E08093E9001A
:104890008FEF9091E800815095FD06C095ED9A95B7
:1048A000F1F700008111F5CF8091E80085FF0DC080
:1048B00040E050E063E070E0CE0101960E94F126F6
:1048C0008091E8008E778093E8000F900F900F9012
:1048D000DF91CF911F910F910895CF93DF9300D077
:1048E0001F92CDB7DEB72091AC04243029F522E029
:1048F0002983805891099B838A832093E9008FEF55
:104900009091E800815095FD06C095ED9A95F1F7DC
:1049100000008111F5CF8091E80085FF0DC040E0D7
:1049200050E063E070E0CE0101960E94F126809194
:10493000E8008E778093E8000F900F900F90DF9142
:10494000CF910895CF93DF93EC010E94D42682305B
:1049500011F0843039F581E08093E9009FEF809178
:10496000E800915085FD06C085ED8A95F1F70000BD
:104970009111F5CF8091E80085FF14C040E050E030
:1049800068E070E0CE010E94F1269091E8009E77E9
:104990009093E80098E0FE01ADE9B3E001900D923C
:1049A0009A95E1F7DF91CF9108950F931F936330AC
:1049B000710509F04CC0622F842F807F803849F147
:1049C000803909F044C06F7770E080E090E00E9489
:1049D000EB2C20E030E040E451E40E94412C9B01AC
:1049E000AC0160E070E080E090E40E946F2E0F77F1
:1049F00010E023E0159507952A95E1F72DEC3CECA6
:104A000042E851E40E94022EA8011F910F910C94DC
:104A1000290E6F7770E080E090E00E94EB2C20E0A0
:104A200030E040E451E40E94412C9B01AC0160E085
:104A300070E080E090E40E946F2E2DEC3CEC42E8A8
:104A400051E40E94022E1F910F910C94610A4C3F79
:104A500021F41F910F910C942E0A1F910F9108952C
:104A60008091AB04811109C00E94D1280E942E2997
:104A70008091E20084608093E20008951092AB047C
:104A80000895089508950C94871E42E061EC81E03A
:104A90000E944B2842E061EC82E00E944B2842E3F6
:104AA00061E883E00E944B2842E360E884E00C94D4
:104AB0004B288091AE04833009F453C030F4813028
:104AC00071F0823009F48CC008958A3009F478C0FE
:104AD0008B3009F45EC0893009F09AC020C0809103
:104AE000AD04813A09F094C08091E800877F8093FB
:104AF000E8008091B1049091B204892B21F468E020
:104B00008DE993E003C060E080E090E070E00E94F7
:104B100087278091E8008B778093E8000895809143
:104B2000AD04813209F074C08091B1049091B20457
:104B3000892B09F06DC08091E800877F8093E800A1
:104B40008091E80082FD05C08091AC048111F8CF0E
:104B50005FC08091F1008093A5038091E8008B777E
:104B600053C08091AD04813A09F052C08091B104E4
:104B70009091B204892B09F04BC08091E800877FA7
:104B80008093E8008091E80080FFFCCF809135029F
:104B900036C08091AD048132D9F58091B1049091F5
:104BA000B204892BA9F58091E800877F8093E80003
:104BB0000E9480288091AF04809335020C94F517F1
:104BC0008091AD04813221F58091E800877F809348
:104BD000E8000E9480288091B0048093A603089585
:104BE0008091AD04813AA1F48091E800877F8093A1
:104BF000E8008091E80080FFFCCF8091A6038093BD
:104C0000F1008091E8008E778093E8000C94802872
:104C1000089588EA93E00E94612060EE73E288EADA
:104C200093E00E94AE2068E973E288EA93E00C9476
:104C3000B2200E94092684B7877F84BF0FB6F894FC
:104C4000A895809160008861809360001092600058
:104C50000FBE80E880936100109261000E943913BA
:104C60000E94D1280E942E298091E20084608093C6
:104C7000E200789465ED74E288EA93E00E945D209A
:104C800063E873E288EA93E00E94552064E873E2E7
:104C900088EA93E00E9459200E94B42B0E943B13A3
:104CA00085E292E00E94F0128091AC04853069F4B4
:104CB0000E94411E8091AA048823B1F30E94721EB3
:104CC000882391F30E94DB26EFCF0E94431388EAEA
:104CD00093E00E944D22E8CF292F3327233031055E
:104CE000C9F064F42130310581F02230310509F03A
:104CF00042C087E990E02AE035E041C02132310529
:104D0000F1F02232310549F136C082E190E021EA2A
:104D100035E035C099278130910541F08230910509
:104D200041F0892B41F5E6E0F5E005C0E8EDF4E05F
:104D300002C0ECEAF4E0849190E09F0120C0662379
:104D400039F06130C1F489E090E025E335E017C027
:104D500089E090E02CE135E012C0662339F0613043
:104D600051F486E390E023EB35E009C080E490E065
:104D700029EE35E004C080E090E020E030E0FA0168
:104D80003183208308950895CF93C82F0E94C326AE
:104D9000C093A703CF9108958091AC04843011F0A3
:104DA00081E0089582E008958091A703811102C0F7
:104DB0000C94CC26089580E189BD82E189BD09B4B7
:104DC00000FEFDCF8091D8008F7D8093D800809128
:104DD000E00082608093E0008091E00081FDFCCFE4
:104DE0000895CF92DF92EF92FF920F931F93CF938C
:104DF000DF93EC018B016A010E949F28811133C06F
:104E0000C114D10439F0F60180819181081B190B7E
:104E1000C80FD91FE12CF12C0115110519F1809152
:104E2000E80085FD16C08091E8008E778093E80049
:104E3000C114D10449F0F60180819181E80EF91E78
:104E4000F182E08285E00FC00E949F28882321F331
:104E50000AC089918093F10001501109FFEFEF1A08
:104E6000FF0ADACF80E0DF91CF911F910F91FF9081
:104E7000EF90DF90CF900895CF92DF92EF92FF9264
:104E80000F931F93CF93DF93EC018B016A010E9474
:104E90009F28811133C0C114D10439F0F6018081FB
:104EA0009181081B190BC80FD91FE12CF12C01159A
:104EB000110519F18091E80085FD16C08091E80088
:104EC0008B778093E800C114D10449F0F60180810A
:104ED0009181E80EF91EF182E08285E00FC00E9408
:104EE0009F28882321F30AC08091F1008993015003
:104EF0001109FFEFEF1AFF0ADACF80E0DF91CF91BF
:104F00001F910F91FF90EF90DF90CF900895209127
:104F1000B3043091B4042617370748F061157105C2
:104F200039F42091E8002E772093E80001C0B90100
:104F300040E061157105A9F12091AC04222309F428
:104F400043C0253009F442C02091E80023FD40C051
:104F50002091E80022FD32C02091E80020FFE9CF37
:104F60004091F3002091F20030E0342BFC01CF019E
:104F70006115710559F02830310540F48191809315
:104F8000F100615071092F5F3F4FF1CF41E02830B0
:104F9000310509F040E02091E8002E772093E800E9
:104FA000C8CF4111C9CF0AC08091AC04882361F0F9
:104FB000853061F08091E80083FD0AC08091E800AF
:104FC00082FFF2CF80E0089582E0089583E00895A3
:104FD00081E008952091B3043091B4042617370777
:104FE00048F06115710539F42091E8002E7720937F
:104FF000E80001C0B901FC0120E06115710591F1E3
:105000008091AC04882309F440C0853009F43FC086
:105010008091E80083FD3DC08091E80082FD2FC0B3
:105020008091E80080FFE9CF2091F3008091F200A9
:1050300090E0922B6115710559F08830910540F48C
:1050400024912093F1003196615071090196F2CFBD
:1050500021E0089709F020E08091E8008E778093A6
:10506000E800CBCF2111CCCF0AC08091AC048823BB
:1050700061F0853061F08091E80083FD0AC0809185
:10508000E80082FFF2CF80E0089582E0089583E097
:10509000089581E00895982F973058F59093E9008E
:1050A000981739F07091EC002091ED005091F000CC
:1050B00003C0242F762F50E021FF19C03091EB0060
:1050C0003E7F3093EB003091ED003D7F3093ED005B
:1050D0003091EB0031603093EB007093EC00209343
:1050E000ED005093F0002091EE0027FF07C09F5F76
:1050F000D3CF8F708093E90081E0089580E0089518
:105100008091AD0487FF11C08091E80082FD05C049
:105110008091AC048111F8CF11C08091E8008B77A9
:105120000BC08091AC04882349F08091E80080FF97
:10513000F8CF8091E8008E778093E8000895209161
:10514000E4003091E50095E64091EC00842F8170F9
:1051500040FF22C08091E80080FD1CC08091AC041B
:10516000882391F0853091F08091EB0085FD10C08F
:105170004091E4005091E5004217530729F39A014A
:10518000915011F784E0089582E0089583E0089536
:1051900081E0089580E008954091E80042FFDECF6D
:1051A00008950E943F290E944729E0EEF0E08081A7
:1051B00081608083E8EDF0E080818F77808319BC87
:1051C000A7EDB0E08C918E7F8C9380818F7E808361
:1051D0001092AB0408950F931F93CF93DF930E9417
:1051E0003F290E944729C8EDD0E088818F778883C6
:1051F00088818068888388818F7D888319BC10921C
:10520000AC041092A8041092AA041092A90400EE13
:1052100010E0F80180818B7F8083888181608883A2
:1052200042E060E080E00E944B28E1EEF0E0808107
:105230008E7F8083E2EEF0E08081816080838081D8
:1052400088608083F80180818E7F8083888180617F
:105250008883DF91CF911F910F910895E8EDF0E0E1
:1052600080818F7E8083E7EDF0E0808181608083A4
:1052700084E082BF81E08093AB040C94EB28E8EDDE
:10528000F0E080818E7F80831092E200089510927A
:10529000DA001092E10008951F920F920FB60F925C
:1052A00011242F933F934F935F936F937F938F932B
:1052B0009F93AF93BF93EF93FF938091E10082FFA1
:1052C0000BC08091E20082FF07C08091E1008B7FDC
:1052D0008093E1000E94B32B8091DA0080FF1FC011
:1052E0008091D80080FF1BC08091DA008E7F809370
:1052F000DA008091D90080FF0DC080E189BD82E194
:1053000089BD09B400FEFDCF81E08093AC040E940A
:10531000302505C019BC1092AC040E943E25809136
:10532000E10080FF19C08091E20080FF15C08091EC
:10533000E2008E7F8093E2008091E20080618093A2
:10534000E2008091D80080628093D80019BC85E08B
:105350008093AC040E9442258091E10084FF30C01C
:105360008091E20084FF2CC080E189BD82E189BD8B
:1053700009B400FEFDCF8091D8008F7D8093D800C6
:105380008091E1008F7E8093E1008091E2008F7E2A
:105390008093E2008091E20081608093E20080913E
:1053A000A804882311F084E007C08091E30087FD02
:1053B00002C081E001C083E08093AC040E944325D9
:1053C0008091E10083FF29C08091E20083FF25C026
:1053D0008091E100877F8093E10082E08093AC04BC
:1053E0001092A8048091E1008E7F8093E10080916B
:1053F000E2008E7F8093E2008091E20080618093E2
:10540000E20042E060E080E00E944B288091F000E2
:1054100088608093F0000E944125FF91EF91BF9139
:10542000AF919F918F917F916F915F914F913F913C
:105430002F910F900FBE0F901F9018951F920F92F3
:105440000FB60F9211242F933F934F935F936F9357
:105450007F938F939F93AF93BF93CF93DF93EF93FC
:10546000FF93C091E900CF708091EC00D82FD170EC
:1054700080FDD0E81092E9008091F000877F809352
:10548000F00078940E94622A1092E9008091F00066
:1054900088608093F000CD2BCF70C093E900FF911E
:1054A000EF91DF91CF91BF91AF919F918F917F91BC
:1054B0006F915F914F913F912F910F900FBE0F9081
:1054C0001F9018951F93CF93DF93CDB7DEB7AA97A0
:1054D0000FB6F894DEBF0FBECDBFEDEAF4E088E072
:1054E0008E0F9091F10091938E13FBCF0E9459255E
:1054F0008091E80083FF1FC18091AD049091AE04BC
:10550000492F50E04A30510508F015C1FA01ED5518
:10551000FF4F0C940E30803881F0823809F00BC1B7
:105520008091B1048F708093E9008091EB0085FB3E
:10553000882780F91092E90006C08091A904909113
:10554000AA04911182609091E800977F9093E800FF
:105550008093F1001092F100C8C0282F2D7F09F030
:10556000EAC0882319F0823061F0E5C08091AF0471
:10557000813009F0E0C0933009F080E08093AA0404
:105580002BC08091AF04811127C08091B1048F702E
:1055900009F4D1C08093E9002091EB0020FF1CC0EA
:1055A000933021F48091EB00806214C09091EB0065
:1055B00090619093EB0021E030E0A90102C0440F1C
:1055C000551F8A95E2F74093EA001092EA00809115
:1055D000EB0088608093EB001092E9008091E80076
:1055E000877F86C08111A7C01091AF041F7780917B
:1055F000E3008078812B8093E3008091E800877F2F
:105600008093E8000E9480288091E80080FFFCCF12
:105610008091E30080688093E300111102C082E072
:1056200001C083E08093AC0486C08058823008F0CB
:1056300082C08091AF049091B0048C3D53E09507F7
:1056400079F583E08A838AE289834FB7F894DE0193
:10565000139620E03EE051E2E32FF0E05093570034
:10566000E49120FF03C0E295EF703F5FEF708E2F53
:1056700090E0EA3010F0C79601C0C0968D939D93DC
:105680002F5F243149F74FBF8091E800877F8093D7
:10569000E8006AE270E0CE0101960E94872714C0FC
:1056A000AE014F5F5F4F6091B1040E946C26BC0158
:1056B000892B09F440C09091E800977F9093E8000F
:1056C00089819A810E94EA278091E8008B778093F4
:1056D000E80031C0803879F58091E800877F8093B9
:1056E000E8008091A8048093F1008091E8008E7713
:1056F0008093E8000E9480281EC081111CC09091F8
:10570000AF049230C0F48091E800877F8093E80076
:105710009093A8040E9480288091A804811106C05B
:105720008091E30087FD02C081E001C084E08093A6
:10573000AC040E9445258091E80083FF0AC0809157
:10574000E800877F8093E8008091EB00806280937F
:10575000EB00AA960FB6F894DEBF0FBECDBFDF9167
:10576000CF911F9108950895CF938091AC04882321
:10577000A1F0C091E900CF709091EC00892F817069
:1057800090FD80E8C82B1092E9008091E80083FD2D
:105790000E94622ACF70C093E900CF9108955058BB
:1057A000BB27AA270E94E72B0C94C32D0E94B52D7E
:1057B00038F00E94BC2D20F039F49F3F19F426F4F4
:1057C0000C94B22D0EF4E095E7FB0C949E2DE92F7E
:1057D0000E94D42D58F3BA17620773078407950700
:1057E00020F079F4A6F50C94F62D0EF4E0950B2E2E
:1057F000BA2FA02D0B01B90190010C01CA01A00123
:105800001124FF27591B99F0593F50F4503E68F17D
:105810001A16F040A22F232F342F4427585FF3CFBE
:10582000469537952795A795F0405395C9F77EF48F
:105830001F16BA0B620B730B840BBAF09150A1F0D8
:10584000FF0FBB1F661F771F881FC2F70EC0BA0F5E
:10585000621F731F841F48F4879577956795B795E6
:10586000F7959E3F08F0B0CF9395880F08F09927E1
:10587000EE0F9795879508950E947A2D08F481E0A0
:1058800008950E94552C0C94C32D0E94BC2D58F0F5
:105890000E94B52D40F029F45F3F29F00C949E2D15
:1058A00051110C94F72D0C94B22D0E94D42D68F355
:1058B0009923B1F3552391F3951B550BBB27AA27C9
:1058C00062177307840738F09F5F5F4F220F331F03
:1058D000441FAA1FA9F335D00E2E3AF0E0E832D0CB
:1058E00091505040E695001CCAF72BD0FE2F29D0CE
:1058F000660F771F881FBB1F261737074807AB07A0
:10590000B0E809F0BB0B802DBF01FF2793585F4F14
:105910003AF09E3F510578F00C949E2D0C94F72D93
:105920005F3FE4F3983ED4F3869577956795B795F6
:10593000F7959F5FC9F7880F911D9695879597F901
:105940000895E1E0660F771F881FBB1F621773077A
:105950008407BA0720F0621B730B840BBA0BEE1F8F
:1059600088F7E09508950E94BA2C6894B1110C94C0
:10597000F72D08950E94DC2D88F09F5798F0B92FDD
:105980009927B751B0F0E1F0660F771F881F991F74
:105990001AF0BA95C9F714C0B13091F00E94F62DF3
:1059A000B1E008950C94F62D672F782F8827B85F03
:1059B00039F0B93FCCF3869577956795B395D9F7CC
:1059C0003EF490958095709561957F4F8F4F9F4FD6
:1059D0000895E89409C097FB3EF4909580957095E2
:1059E00061957F4F8F4F9F4F9923A9F0F92F96E92B
:1059F000BB279395F695879577956795B795F111A0
:105A0000F8CFFAF4BB0F11F460FF1BC06F5F7F4F3C
:105A10008F4F9F4F16C0882311F096E911C077234E
:105A200021F09EE8872F762F05C0662371F096E857
:105A3000862F70E060E02AF09A95660F771F881F26
:105A4000DAF7880F9695879597F908950E94B52DF6
:105A500020F019F00E94BC2D50F40C94B22D0C943F
:105A6000F72DE92F0E94D42D88F35523B1F3E7FBDE
:105A70006217730784079507A8F189F3E92FFF27B9
:105A800088232AF03197660F771F881FDAF7952F42
:105A90005527442332F091505040220F331F441FAA
:105AA000D2F7BB27E91BF50B621B730B840BB10903
:105AB000B1F222F4620F731F841FB11D31972AF0D7
:105AC000660F771F881FBB1FEFCF9150504062F0C9
:105AD00041F0882332F0660F771F881F91505040A5
